:020000040800F2
:10000000FCFF0020850A0000690A0000690A000060
:10001000690A0000690A0000690A0000690A000014
:10002000690A0000690A0000690A0000690A000004
:10003000690A0000690A0000690A0000690A0000F4
:10004000690A0000690A0000690A0000690A0000E4
:10005000690A0000690A0000690A0000690A0000D4
:10006000690A0000690A0000690A0000690A0000C4
:10007000690A0000690A0000690A0000690A0000B4
:10008000690A0000690A0000690A0000690A0000A4
:10009000690A0000690A0000690A0000690A000094
:1000A000690A0000690A0000690A0000690A000084
:1000B000690A0000690A0000690A0000690A000074
:1000C000690A0000690A0000690A0000690A000064
:1000D000690A0000690A0000690A0000690A000054
:1000E000690A0000690A0000690A0000690A000044
:1000F000690A0000690A0000690A0000690A000034
:10010000690A0000690A0000690A0000690A000023
:10011000690A0000690A0000690A0000690A000013
:10012000690A0000690A0000690A0000690A000003
:10013000690A0000690A0000690A0000690A0000F3
:10014000690A0000690A0000690A0000690A0000E3
:1001500081B0194900EA0101084600220EE004209E
:1001600022E0082020E010201EE020201CE040209B
:100170001AE0802018E040F2001015E00F49884294
:10018000EDD00F498842ECD00E498842EBD00E49A1
:100190008842EAD00D498842E9D00D498842E8D02A
:1001A0000C498842E7D010460B49096841EA000231
:1001B00009490A6001B0704700FCFFFF00080140D8
:1001C000000C0140001001400014014000180140E3
:1001D000001C0140002001401810024081B0CDF801
:1001E00000E08CB21546774B00EA03031E46184622
:1001F000FFF7AEFFB4F1FF0F0CD1734B9D4203D15B
:100200004FF033333360D9E0422D03D14FF0443304
:100210003360D3E04FF6FF739C4214D16A4B9D428A
:1002200007D14FF033333360341D4FF03333236045
:10023000C4E0422D07D14FF044333360341D4FF0FA
:1002400044332360BAE00021002005F001030BB124
:1002500000211DE005F0020333B105F4C0730BB1BA
:10026000082100E0042113E005F0040333B105F098
:1002700020030BB1042100E0002109E005F0080390
:1002800033B105F020030BB10C2100E00821FFE79A
:100290004E4B05EA03030BB1032009E005F400739C
:1002A0000BB1022004E005F480630BB10120FFE7ED
:1002B00005F00C030BB10143FFE704F0FF039BB211
:1002C000002B3BD0376800201FFA84F832462E46B8
:1002D00008282CD24FF0010303FA00F408EA0403C3
:1002E000A34222D185004FF00F03AB40DB4307EA66
:1002F000030401FA05F344EA03031D4606F481737F
:10030000B3F5817F05D102F214044FF0010383405D
:10031000236006F08203822B05D102F210044FF015
:100320000103834023602F46FFE7401CD0E717609E
:100330001FFA88F00F463146164602E00F4629465E
:10034000A0B2B0F1FF0F39D9331DD3F800800022DD
:10035000082A30D202F208044FF0010303FA04F431
:1003600000EA0403A34224D195004FF00F03AB40F1
:10037000DB4308EA030807FA05F348EA030801F437
:100380008173B3F5817F07D106F2140502F20804E8
:100390004FF00103A3402B6001F08203822B07D1B1
:1003A00006F2100502F208044FF00103A3402B608F
:1003B000FFE7521CCCE7331DC3F80080DDF800E0F6
:1003C00001B0704700FCFFFF14000800000808009F
:1003D00081B0CDF800E04FF0420289B2FFF7FEFE97
:1003E000DDF800E001B0704781B0CDF800E0044ACC
:1003F00089B2FFF7F3FEDDF800E001B0704700BFFF
:100400001400080001490860704700BF94012142B0
:1004100001490860704700BFA88122420149086075
:10042000704700BFB881224201490860704700BF91
:100430008C01224201490860704700BF9881214227
:1004400001490860704700BF9C8121420149086052
:10045000704700BFA481224201490860704700BF75
:10046000A081224201490860704700BFA8012242D2
:1004700001490860704700BF948122420149086029
:10048000704700BF9881224201490860704700BF51
:100490009C81214201490860704700BF9881214238
:1004A00001490860704700BFB0012242014908605D
:1004B000704700BFAC01224201490860704700BF8D
:1004C000B081224201490860704700BFB0812242DA
:1004D00001490860704700BF90012142014908604E
:1004E000704700BF8801224200F230010A680649C5
:1004F0000A60011D0A6805490A6000F218010A68CD
:1005000003490A60704700BF04000020000000207B
:100510000800002081B0CDF800E0A9E0012905D154
:1005200040F210016548FFF753FF04E040F210016C
:100530006248FFF759FFBBE0012905D140F20401F1
:100540005F48FFF745FF04E040F204015C48FFF715
:100550004BFFADE0012905D142F200015948FFF7F8
:1005600037FF04E042F200015648FFF73DFF9FE0ED
:10057000012905D140F200415148FFF729FF04E06D
:1005800040F200414E48FFF72FFF91E0012905D1CD
:1005900040F600014A48FFF71BFF04E040F6000167
:1005A0004748FFF721FF83E0012905D141F200010F
:1005B0004348FFF70DFF04E041F200014048FFF718
:1005C00013FF75E0012905D140F201013B48FFF717
:1005D000FFFE04E040F201013848FFF705FF67E045
:1005E000012905D140F200413648FFF7F1FE04E051
:1005F00040F200413348FFF7F7FE59E0012905D1E9
:1006000040F200212F48FFF7E3FE04E040F2002112
:100610002C48FFF7E9FE4BE0012905D140F200111B
:100620002848FFF7D5FE04E040F200112548FFF707
:10063000DBFE3DE0012905D140F240012248FFF7F1
:10064000C7FE04E040F240011F48FFF7CDFE2FE057
:10065000012905D140F280011B48FFF7B9FE04E0F3
:1006600040F280011848FFF7BFFE21E0012020E0A2
:1006700000283FF453AF01283FF45EAF02283FF457
:1006800069AF03283FF474AF04283FF47FAF052817
:100690003FF48AAF06283FF495AF0728A0D008287A
:1006A000ACD00928B8D00A28C4D00B28D0D0DDE7B8
:1006B0000020DDF800E001B0704700BF00080140F5
:1006C0000010014000140140000C014081B0CDF841
:1006D00000E0A9E0012905D140F220016548FFF7BB
:1006E00077FE04E040F220016248FFF77DFEBBE0A8
:1006F000012905D140F208015F48FFF769FE04E0D7
:1007000040F208015C48FFF76FFEADE0012905D11A
:1007100044F200015948FFF75BFE04E044F2000197
:100720005648FFF761FE9FE0012905D140F20041E4
:100730005148FFF74DFE04E040F200414E48FFF7FC
:1007400053FE91E0012905D140F600014A48FFF728
:100750003FFE04E040F600014748FFF745FE83E016
:10076000012905D141F200014348FFF731FE04E0C1
:1007700041F200014048FFF737FE75E0012905D13D
:1007800041F200013D48FFF723FE04E041F2000181
:100790003A48FFF729FE67E0012905D140F600013C
:1007A0003648FFF715FE04E040F600013348FFF736
:1007B0001BFE59E0012905D140F240012F48FFF707
:1007C00007FE04E040F240012C48FFF70DFE4BE02D
:1007D000012905D140F220012848FFF7F9FD04E086
:1007E00040F220012548FFF7FFFD3DE0012905D13A
:1007F00040F240012248FFF7EBFD04E040F24001E7
:100800001F48FFF7F1FD2FE0012905D140F28001DB
:100810001B48FFF7DDFD04E040F280011848FFF7B8
:10082000E3FD21E0012020E000283FF453AF012840
:100830003FF45EAF02283FF469AF03283FF474AF82
:1008400004283FF47FAF05283FF48AAF06283FF421
:1008500095AF0728A0D00828ACD00928B8D00A281E
:10086000C4D00B28D0D0DDE70020DDF800E001B0D7
:10087000704700BF00080140001001400014014013
:10088000000C014001490860704700BFAC012242E2
:1008900001490860704700BF80012142014908609A
:1008A000704700BFB001224201490860704700BF95
:1008B000B481224201490860704700BFA80122426A
:1008C00081B0CDF800E05FFA81F95FFA82FA0FE0BB
:1008D0005FFA8AF15FFA89F0FFF71CFE0DE05FFA1C
:1008E0008AF15FFA89F0FFF7F1FE06E0012004E0EB
:1008F0000028EDD00128F2D0F8E7DDF800E001B0E3
:100900007047FFFF81B0CDF800E00120034C246860
:10091000A047DDF800E001B0704700BF00000020F4
:1009200081B0CDF800E0FFF7DFFDDDF800E001B0B9
:100930007047FFFF81B0CDF800E0034C2468A0476A
:10094000DDF800E001B07047000000207047FFFFB5
:1009500081B01548006840F0010113480160134957
:100960001348016010480168124801400E480160B8
:100970000D4801686FF4802001400B4801600C486D
:1009800001686FF4FE0001400948016006480168F3
:100990006FF0A0500140044801604FF0000106488C
:1009A000016001B0704700BF001002400000FFF07E
:1009B00004100240FFFFF6FE2C10024081B01CF82C
:1009C000019B0BF8019BBBEB0A0FF8D101B07047FC
:1009D00081B0CDF800E0002206210020FFF770FF73
:1009E000002201210020FFF76BFF44F67F77C0F261
:1009F00012077F1EFDD100BF00BF00BF00BF00BFB8
:100A0000DDF800E001B0704781B0CDF800E00648A5
:100A1000FFF786FFFFF776FF0120FFF78BFFDDF87A
:100A200000E001B0704700BFE40B000081B04FF060
:100A300000094FF0000CBDEB0A0F04DCBDEB0B0FFF
:100A400001DBD446EA464BF8049BBBEB0A0FFAD114
:100A5000BCEB0A0F05DDE246D9F800B00BF1040B40
:100A6000F1E701B07047FFFF81B0FEE701B07047CA
:100A700081B002490248016001B07047401901008D
:100A80000C00002000F00CF800F0DCF8FFF7F0FF9D
:100A9000FFF79EFFFFF7B8FFFFF758FFFCE7FEE701
:100AA00081B0CDF800E0464A464B474C47494BF6EB
:100AB0008030814206D94648006840F0020144482F
:100AC000016011E045F6C050814206D940480068F7
:100AD00040F001013E48016006E03D4801686FF0CA
:100AE000070001403A480160FFF732FF39480360D0
:100AF00039480460394802EA00013948016002F0CF
:100B0000010040B119463648006800F00200002894
:100B100000D1F8E700E0194602F4803040B10B46FE
:100B20002F48006800F40030002800D1F8E700E00A
:100B30000B4602F0805068B12948006840F08051AF
:100B4000274801602648006800F00050002800D1C6
:100B5000F8E7FFE702F0806078B12148006840F0D4
:100B600080611F48016011461A461D48006800F068
:100B70000060002800D1F8E701E011461A4601F0B4
:100B8000807070B11648006840F0807114480160B0
:100B900011461348006800F0007000B9F9E70A46F2
:100BA000FFE70C48006800F00C01900000F00C001A
:100BB000814200D0F5E7DDF800E001B0704700BFEA
:100BC0008100010502841D00440601004019010056
:100BD00000200240041002402C100240FFFF0F00D2
:100BE00000100240D1040000DD040000A90800004C
:100BF000B5080000850800009D080000910800006D
:100C0000110400004D0400005904000035040000E8
:100C100041040000FFFFFFFFFFFFFFFFFFFFFFFF9B
:100C2000FFFFFFFFFFFFFFFFFFFFFFFFFFFFFFFFD4
:100C3000FFFFFFFFFFFFFFFFFFFFFFFFFFFFFFFFC4
:100C4000FFFFFFFF00B5DFF810B0DFF810A0FFF7DF
:100C5000EDFE00BD704700BF000000201000002026
:00000001FF
